:020000040800F2
:1000000098090020A10F0008B1010008B301000801
:10001000B7010008BB010008BF0100080000000094
:10002000000000000000000000000000C301000804
:10003000C501000800000000C7010008B90F000852
:10004000BB0F0008BB0F0008BB0F0008BB0F000868
:10005000BB0F0008BB0F0008BB0F0008BB0F000858
:10006000BB0F0008BB0F0008BB0F00083B0D0008CA
:10007000BB0F0008BB0F0008C9010008BB0F000838
:10008000BB0F0008BB0F0008BB0F0008BB0F000828
:10009000BB0F0008BB0F0008BB0F0008BB0F000818
:1000A000BB0F0008BB0F0008BB0F0008BB0F000808
:1000B000BB0F0008BB0F0008BB0F0008BB0F0008F8
:1000C000BB0F0008BB0F0008BB0F0008BB0F0008E8
:1000D000BB0F0008572E0008BB0F0008BB0F00081D
:1000E000BB0F0008BB0F0008BB0F000800F002F8B0
:1000F00000F03AF80AA090E8000C82448344AAF188
:100100000107DA4501D100F02FF8AFF2090EBAE885
:100110000F0013F0010F18BFFB1A43F0010318473B
:10012000502E0000702E0000103A24BF78C878C10D
:10013000FAD8520724BF30C830C144BF04680C60ED
:10014000704700000023002400250026103A28BF35
:1001500078C1FBD8520728BF30C148BF0B60704739
:100160001FB51FBD10B510BD02F0BBFE1146FFF755
:10017000F7FF00F008F802F0D9FE03B4FFF7F2FF32
:1001800003BC02F005FE08B502F066FD02F0CEFDEC
:1001900000F080FC0020042308220721009000F0DA
:1001A000DFFD04E000F09AFE0A2002F092FDF9E77C
:1001B000704700BFFEE700BFFEE700BFFEE700BFDD
:1001C000FEE770477047704710B54FF4005001F0DC
:1001D00000FE38B14FF4005001F0F0FD002102485C
:1001E00001F0BDFD10BD0000440002400CB5002030
:1001F000019000906C48006840F480306A490860C3
:1002000000BF6948006800F4003000900198401C6D
:100210000190009818B90198B0F5A06FF1D162482B
:10022000006800F4003010B10120009001E00020CF
:1002300000900098012843D15C48006840F010000D
:100240005A4908600846006820F003000860084624
:10025000006840F002000860534840685249486016
:100260000846406848600846406840F4806048603E
:100270000846406820F47C1048600846406840F416
:10028000E81048600846006840F08070086000BFD1
:100290004548006800F000700028F9D042484068E6
:1002A00020F00300404948600846406840F00200E2
:1002B000486000BF3C48406800F00C000828F9D1B5
:1002C0000CBD10B5FFF792FF10BD10B536480068A1
:1002D00040F001003449086008464068344908404D
:1002E0003149486008460068324908402E49086094
:1002F0000846006820F4802008600846406820F422
:10030000FE0048604FF41F008860FFF7DAFF4FF0EF
:1003100000602949086010BD10B5002100200022AE
:10032000214B5B6803F00C0121B1042906D0082998
:1003300028D107E0214B224C236027E01F4B204CA3
:10034000236023E0184B5B6803F47010164B5B6866
:1003500003F48032022303EB904022B9194B43434C
:10036000174C23600DE0104B5B6803F4003323B19E
:10037000144B4343124C236003E0104B4343104C97
:10038000236003E00D4B0E4C236000BF00BF064B03
:100390005B68C3F303130C4CE15C094B1B68CB4057
:1003A000074C236010BD00000010024000200240F6
:1003B0000000FFF8FFFFF6FE08ED00E000127A00F3
:1003C0000000002000093D000400002030B5024676
:1003D0000B464FF6FF70002112E0555C6840002488
:1003E0000AE000F0010525B140104AF2010568401D
:1003F00000E04010651CACB2082CF2DB4D1CA9B229
:100400009942EADB30BD2DE9F04104460E46092E43
:1004100029D2DFE806F0280C131A21282828050025
:1004200004F18000F7494870082088701BE004F14F
:100430008000F44948700120887014E004F18000C5
:10044000F0494870022088700DE004F18000ED4909
:1004500048700320887006E004F18000E9490870C4
:100460000420487000BF00BF0321E648FFF7AEFF3D
:1004700005462F0A05F0FF08E24880F8038007715F
:100480000520E1490880BDE8F0812DE9F04FDF4803
:1004900090F8028090F8039090F804A090F805B0CE
:1004A00009EB082087B2D948857905EBD57107EBB0
:1004B0006101402904DD02211020FFF7A4FF30E094
:1004C000002412E0082000EB4400D049085C07211A
:1004D00001EB4401CD4A515C00EB0120C0B2391957
:1004E000CB4A22F81100601C84B205EBD571B4EB45
:1004F000610FE7DB1020C3494870084680F802808E
:1005000080F8039080F804A080F805B00621FFF77A
:100510005DFF0646BB498E71300AC8710820BA4992
:100520000880BDE8F08F2DE9F047B848877890F84B
:10053000038090F8049090F805A008EB072084B29F
:100540000AEB092086B2402C04DD02210620FFF7C9
:100550005AFF26E0B6F5803F04DB03210620FFF7B3
:1005600052FF1EE0AA4820F814600620A5494870F2
:100570000846877080F80380A54830F81400000A08
:100580000871A34810F81400487106219D48FFF730
:100590001DFF05469B498D71280AC87108209A499C
:1005A0000880BDE8F0872DE9F043984890F8028074
:1005B00090F803900679477909EB082085B2402D21
:1005C00004DB02210120FFF71EFF1FE0FF2E03D1F5
:1005D00017B901208F4948551EB917B900208D4918
:1005E0004855052087494870084680F8028080F801
:1005F0000390067147710621FFF7E8FE0446814922
:100600008C71200AC87108207F490880BDE8F083FA
:100610002DE9F84F7D4890F8029090F803A090F8EB
:1006200004B0407900900AEB092087B2009800EBF3
:100630000B201FFA80F807EB0800402801DA012F91
:1006400004DD02210120FFF7DEFE4CE002240AE077
:10065000042404E0002070490855601C84B2202C5A
:10066000F8DB601C84B2062CF2DB0420654948707C
:100670004FEA4860000E887000241AE00021E01C58
:10068000604A1154002510E007EBC4002844624979
:10069000085C00F00100A840E11C5A4A515C084483
:1006A000C1B2E01C1154681C85B2082DECDB601C43
:1006B00084B254488078A042E0DC52488078C11C63
:1006C0005048FFF783FE06464E488078C01C4D4ACE
:1006D0001654310A10468078001D11541046807857
:1006E000401D49490880BDE8F88F2DE9F04F474883
:1006F00090F8028090F8039090F804A090F805B06C
:1007000009EB082087B20BEB0A2084B23819402885
:1007100004DD02210320FFF776FE34E0032039498F
:1007200048706006000E8870002513E0781938497B
:1007300031F81000000A032101EB4501314A505401
:100740007819334911F81000042101EB4501505488
:10075000681C85B2A542E9DB032000EB440081B2AE
:100760002848FFF733FE0646032101EB4401254AE2
:100770005654300A042101EB44015054052000EB8B
:10078000440021490880BDE8F08F2DE9F84F1F484B
:1007900090F8029090F803A090F804B0407900908F
:1007A0000AEB09201FFA80F8009800EB0B2084B2B6
:1007B00008EB0400402802DAB8F10B0F04DD022137
:1007C0000120FFF720FE5EE002200E494870E1178D
:1007D00004EB5171C910A4EBC10141B92046E117E6
:1007E00004EB5171C1F3C701064A917007E020463E
:1007F000E11704EB5171C910491C024A91700025A0
:1008000027E00000B4010020940000203401002003
:1008100014000020F4000020B40000200021E81C97
:10082000964A1154002610E008EBC5003044944964
:10083000085C00F00100B040E91C904A515C08449B
:10084000C1B2E81C1154701C86B2082EECDB681C87
:1008500085B28A488078A842E0DC88488078C11C4C
:100860008648FFF7B3FD074684488078C01C834A5A
:100870001754390A10468078001D115410468078AC
:10088000401D80490880BDE8F88F2DE9F84F7E486B
:1008900090F8029090F803A090F804B0407900908E
:1008A0000AEB09201FFA80F8009800EB0B2084B2B5
:1008B00008EB0400402804DB02210120FFF7A3FD20
:1008C00051E001206D494870E11704EB5171C910E6
:1008D000A4EBC10141B92046E11704EB5171C1F30A
:1008E000C701664A917007E02046E11704EB517199
:1008F000C910491C614A917000251AE00021E81CCA
:100900005E4A1154002610E008EBC50030445F49F0
:10091000085C00F00100B040E91C584A515C0844F2
:10092000C1B2E81C1154701C86B2082EECDB681CA6
:1009300085B252488078A842E0DC50488078C11CDB
:100940004E48FFF743FD07464C488078C01C4B4A91
:100950001754390A10468078001D115410468078CB
:10096000401D48490880BDE8F88F70B50420434910
:10097000087047480078801E81B24348FFF726FD83
:100980000446E5B2260A42480078801E3E49085CCB
:10099000A84234D13E480078401E085CB0422ED1B7
:1009A00008464078042817D006DC01280BD002281E
:1009B0000CD003281CD10CE0052810D0062811D03B
:1009C000102815D111E0FFF760FF17E0FFF7DDFEFB
:1009D00014E0FFF78AFE11E0FFF71AFE0EE0FFF7C2
:1009E000E2FD0BE0FFF79FFD08E0FFF74EFD05E09D
:1009F000254948780421FFF706FD00BF36E022486C
:100A0000407804281DD006DC01280BD002280ED027
:100A100003282AD110E0052818D006281BD010285A
:100A200023D11DE008210120FFF7EDFC1DE0082186
:100A30000220FFF7E8FC18E008210320FFF7E3FCA1
:100A400013E008210420FFF7DEFC0EE0082105205A
:100A5000FFF7D9FC09E008210620FFF7D4FC04E0E9
:100A600008211020FFF7CFFC00BF00BF70BD10B5FC
:100A70000448008800F08FF810BD0000B401002089
:100A8000B40000209400002034010020F400002075
:100A90009600002008B50121052000F02BFE012161
:100AA000082000F027FE01210F4800F038FC40F636
:100AB000FF70ADF8000048208DF8030003208DF88A
:100AC00002006946094800F059FB4FF47040ADF848
:100AD000000048208DF8030003208DF802006946CD
:100AE000034800F04BFB08BD000230000008014045
:100AF000000C014000B58BB00121084600F0EDFD6F
:100B0000424801F05FF842480090424801900020BE
:100B10000290802003900020049080200590002007
:100B20000690079008904FF44050099000200A90DA
:100B30006946364801F0E8F80121344801F00FF920
:100B40003248143801F03EF83148009032480190A4
:100B500010200290802003900020049080200590B7
:100B600000200690079008904FF400500990002054
:100B70000A9069462548143801F0C6F8012202217E
:100B80002248143801F0F7F801212048143801F008
:100B9000E6F80BB000BD10B5044621461B481438DA
:100BA00001F0F2F801211948143801F0D8F810BD0D
:100BB00000B58BB01548503801F004F81748009084
:100BC00017480190002002907820039000200490A4
:100BD000802005904000069080000790202008901B
:100BE0000002099000200A9069460848503801F038
:100BF0008BF801210548503801F0B1F8012202219B
:100C00000248503801F0B7F80BB000BD5800024060
:100C10000438014034010020B40100204C2401407C
:100C20003402002000B587B00121084600F055FDD0
:100C300001214FF4017000F05DFD0F20ADF80400BC
:100C400000208DF8070001A9414800F097FA4FF401
:100C5000004000F0B3FC3F4801F0DEF800200290B5
:100C600001208DF80C008DF80D004FF460200490E9
:100C70000020059004208DF8180002A9354801F0E5
:100C8000F2F8012001F0ACFA0723012200213148DB
:100C900001F081F90723022201212E4801F07BF99E
:100CA0000723032202212B4801F075F907230422B0
:100CB0000321284801F06FF90121264801F0FFF8CF
:100CC0000121244801F006F9224801F01AF900BF79
:100CD000204801F01BF90028FAD11E4801F020F944
:100CE00000BF1C4801F021F90028FAD10121194860
:100CF00001F025F907B000BD2DE9F04100260024E0
:100D000017E0002507E0144800EBC50030F8140098
:100D10000644681CC5B21E2DF5DB1E2096FBF0F7BD
:100D2000384602F00DF90D4941F824000026601CF8
:100D3000C4B2042CE5DBBDE8F08110B5022001F05F
:100D400048F820B1FFF7D8FF022001F056F810BD97
:100D50000008014000240140340200202403002048
:100D60002DE9F04188B004460D4616461F46DDF8D1
:100D700038800121480600F0CAFC4FF40070ADF83D
:100D80001C0003208DF81E0018208DF81F0007A9F5
:100D90007C4800F0F3F94FF48070ADF81C00482057
:100DA0008DF81F0003208DF81E0007A9754800F07C
:100DB000E5F901214FF4EA1000F0B1FA724801F0B0
:100DC00053FA04A801F074FB00208DF816008DF88A
:100DD00017008DF8180001208DF8190000208DF8FB
:100DE0001A008DF81B008DF812808DF813408DF8D5
:100DF00014608DF81550ADF8107004A9624801F028
:100E00004CFA00208DF80A008DF80B0001208DF8B7
:100E10000C000020ADF80000ADF80200ADF80400B1
:100E2000ADF80600ADF8080001208DF80D00684609
:100E300001F0BDFA002008B0BDE8F081F0B585B042
:100E400007460D46002402200090002001908DF8F6
:100E500008008DF809008DF80A5000BF05E0395DE3
:100E60000DF10B000155601C84B2AC42F7DB694602
:100E7000454801F08BFB0646002401E0601C84B26B
:100E80003146414801F01AFC18B940F6FF7084421F
:100E9000F4DB40F6FF70844202DB012005B0F0BDB8
:100EA0000020FBE730B585B005460021364801F04B
:100EB000E5FC10B9002005B030BD6A46002132487B
:100EC00001F059FC002404E00DF10B00005D2855F1
:100ED000641C082CF8D39DF80A00ECE710B52B48E9
:100EE00000682B49D1F8041140EA41002849D1F8A3
:100EF000081140EA81002649D1F80C1140EAC100EE
:100F00002349D1F8101140EA01102149D1F81411F8
:100F100040EA41101E49D1F8181140EA81101B49DE
:100F20001C31096840EAC1101A4948701A48006823
:100F30001A49D1F8341140EA41001849D1F8381162
:100F400040EA81001549D1F83C1140EAC10010493E
:100F5000D1F8201140EA01100D49D1F8241140EADE
:100F600041100B49D1F8281140EA811007492C3172
:100F7000096840EAC1100749087002210548FFF7D7
:100F80005DFF10BD000C01400064004000012142E3
:100F9000000021429800002030812142008021423F
:100FA0000948804709480047FEE7FEE7FEE7FEE7FD
:100FB000FEE7FEE7FEE7FEE7FEE7FEE70448054939
:100FC000054A064B70470000CB020008ED00000800
:100FD000980300209809002098050020980500201B
:100FE00031490143314A1160704770B50021002337
:100FF0000F22C47804B32D4C246804F4E064C4F5D3
:10100000E064210AC1F10403CA40447804FA03F100
:101010008478144021430901254C0678A1550478B1
:1010200004F01F050124AC4005786D11AD0005F1F9
:10103000E025C5F8004109E0047804F01F0501240B
:10104000AC401C4D0678761145F8264070BD1A4A12
:101050000A400243154B1B1F1A60704739B1134AEF
:10106000121D12680243114B1B1D1A6006E00F4A45
:10107000121D126882430D4B1B1D1A607047042815
:1010800008D14FF0E021096941F004014FF0E0225E
:10109000116107E04FF0E021096921F004014FF0F0
:1010A000E0221161704700000000FA050CED00E03D
:1010B00000E400E080E100E080FFFF1F10B504467F
:1010C000CC48844208D10121042000F02DFB0021EE
:1010D000042000F029FB46E0C748844208D10121E2
:1010E000082000F021FB0021082000F01DFB3AE061
:1010F000C248844208D10121102000F015FB0021D4
:10110000102000F011FB2EE0BD48844208D10121DF
:10111000202000F009FB0021202000F005FB22E048
:10112000B848844208D10121402000F0FDFA002196
:10113000402000F0F9FA16E0B348844208D10121BA
:10114000802000F0F1FA0021802000F0EDFA0AE0A2
:10115000AE48844207D10121801500F0E5FA002154
:10116000A01500F0E1FA10BD10B50121084600F00D
:10117000DBFA0021012000F0D7FA10BD2DE9F04183
:10118000024600250026002000230024002791F8B5
:1011900003C00CF00F0591F803C00CF0100CBCF16B
:1011A000000F03D091F802C04CEA050591F800C089
:1011B000BCF1000F31D0146800202BE04FF0010C7F
:1011C0000CFA00F3B1F800C00CEA03069E4220D1ED
:1011D00083004FF00F0C0CFA03F7BC4305FA03FC35
:1011E0004CEA040491F803C0BCF1280F06D14FF07B
:1011F000010C0CFA00FCC2F814C00AE091F803C01C
:10120000BCF1480F05D14FF0010C0CFA00FCC2F8FC
:1012100010C0401C0828D1D31460B1F800C0BCF144
:10122000FF0F34DD546800202EE000F1080C4FF071
:10123000010808FA0CF3B1F800C00CEA03069E425C
:1012400021D183004FF00F0C0CFA03F7BC4305FAD1
:1012500003FC4CEA040491F803C0BCF1280F05D14B
:1012600000F1080C08FA0CF8C2F8148091F803C0D9
:10127000BCF1480F07D100F1080C4FF0010808FA43
:101280000CF8C2F81080401C0828CED35460BDE88A
:10129000F0814FF6FF710180022181700421C1703D
:1012A00070470246002093680B400BB1012000E01C
:1012B000002070470146886880B2704702460020CF
:1012C000D3680B400BB1012000E0002070470146BD
:1012D000C86880B2704701617047416170470AB1C8
:1012E000016100E041617047C16070474FF4803296
:1012F0000A43826181618261826982697047024624
:101300000020434B18684FF68073184040EA0210E3
:1013100008433F4B186070473E49C8617047F0B5BD
:101320000A46002300240021002500F00046B6F103
:10133000004F02D1364EF16901E0354E7168C0F3BD
:10134000034583B200F44016B6F5401F08D121F0E2
:1013500070612F4E766826F070662D4F7E6012E029
:1013600000F48016B6F5801F06D1032606FA05F4B0
:10137000A14341F0706106E0460D360103FA06F61E
:10138000B14341F0706122B1460D360103FA06F611
:10139000314300F00046B6F1004F02D11C4EF1611E
:1013A00001E01B4E7160F0BD30B500228B071C0FB1
:1013B0000F2303FA04F2164B08338C1053F8243031
:1013C0009343134C08348D1044F8253023468C1079
:1013D00053F824308C07240F00FA04F423430C4CF8
:1013E00008348D1044F8253030BD0A49DC310860DE
:1013F0007047000000080140000C0140001001404F
:101400000014014000180140001C01400020014070
:101410000000014000002042DF48006840F0010069
:10142000DD49086008464068DC490840DA49486000
:1014300008460068DA490840D7490860084600684D
:1014400020F4802008600846406820F4FE004860D0
:101450004FF41F0088607047CF49096821F480313C
:10146000CD4A11601146096821F480211160B0F560
:10147000803F03D0B0F5802F0ED106E0C649096841
:1014800041F48031C44A116007E0C349096841F45E
:10149000A021C14A116000E000BF00BF704710B535
:1014A00001460022002300204A11012A02D1BA4C31
:1014B000236806E0022A02D1B74C236A01E0B64C49
:1014C000636A01F01F02012494401C400CB101200A
:1014D00000E0002010BD38B5002000900024002559
:1014E00000BF3120FFF7DBFF05460098401C00904D
:1014F0000098B0F5A06F01D0002DF2D03120FFF799
:10150000CEFF08B1012400E00024204638BD01468A
:101510000020A14A106820F0F80040EAC1001060E5
:101520007047A04908607047024600209A4B5868EF
:1015300020F47C1042EA01031843974B586070472F
:1015400098490866704701460020934A506820F089
:1015500003000843506070478F48406800F00C005B
:101560007047014600208C4A506820F0F000084384
:101570005060704701460020874A506820F4E060C0
:1015800008435060704701460020834A506820F4A9
:10159000605040EAC1005060704729B17E4A527ADB
:1015A00002437D4B5A7204E07B4A527A82437A4B63
:1015B0005A7270477B49D831086070470146002055
:1015C000754A506820F4404008435060704700213D
:1015D000714A20321170704A82F82010012802D01E
:1015E00004280AD104E001216B4A2032117005E081
:1015F0000521694A2032117000E000BF00BF70472A
:101600006949086070476449096A0143624A116286
:101610007047654944390860704730B500210022A1
:10162000002400235C4D6D6805F00C0121B10429F4
:1016300005D0082923D105E05C4D056022E05B4D13
:1016400005601FE0544D6D6805F47012524D6D68D1
:1016500005F48034022505EB92421CB9544D5543E4
:1016600005600BE04C4D6D6805F400351DB1504D23
:101670005543056002E04D4D5543056002E04B4D7A
:10168000056000BF00BF444D6D6805F0F001090919
:10169000484D6B5C0568DD4045603F4D6D6805F465
:1016A000E061090A434D6B5C4568DD4085603A4D59
:1016B0006D6805F46051C90A3E4D6B5C4568DD40BC
:1016C000C560354D6D6805F44041890B3A4D6B5C42
:1016D000C568B5FBF3F5056130BD29B12E4A5269E5
:1016E00002432D4B5A6104E02B4A526982432A4B34
:1016F0005A61704729B1284A92690243264B9A6180
:1017000004E0254A92698243234B9A61704729B1CC
:10171000214AD2690243204BDA6104E01E4AD269B1
:1017200082431D4BDA61704729B11B4AD2680243DC
:10173000194BDA6004E0184AD2688243164BDA602B
:10174000704729B1144A12690243134B1A6104E02D
:10175000114A12698243104B1A617047124940398D
:10176000086070470F49C86470470B49C8717047DB
:101770000948406A40F08070074948627047014656
:101780000020054A92680A400AB1012000E00020CA
:101790007047014988727047001002400000FFF84E
:1017A000FFFFF6FE000042428004424200127A002F
:1017B00000093D009A000020AA00002010B5044650
:1017C000FB48844209D101218803FFF7ADFF0021C6
:1017D0004FF48040FFF7A8FF32E0F648844209D179
:1017E00001214804FFF7ADFF00214FF40030FFF75F
:1017F000A8FF25E0F048844209D101218804FFF7C1
:10180000A0FF00214FF48020FFF79BFF18E0EB487A
:10181000844209D10121C804FFF793FF00214FF44E
:101820000020FFF78EFF0BE0E548844208D101213C
:101830000805FFF786FF00214FF48010FFF781FFB6
:1018400010BD2DE9F04786B005460E460024A2469D
:1018500000BFA1460027B08900B100BF2F462C8AE7
:101860004CF6FF700440F08804432C82AC894EF69D
:10187000F3100440B0883189084371890843044358
:10188000AC81AC8A4FF6FF400440B0890443AC827F
:1018900001A8FFF7C2FEC648874202D1DDF810A0BA
:1018A00001E0DDF80CA0A88900F4004040B10AEB8B
:1018B000CA0000EB0A1031684900B0FBF1F807E0FC
:1018C0000AEBCA0000EB0A1031688900B0FBF1F89E
:1018D0006420B8FBF0F004012009642101FB1089A9
:1018E000A88900F4004040B1322000EBC900B0FBF1
:1018F000F1F000F00700044308E0322000EB09108B
:101900006421B0FBF1F000F00F0004432C8106B01D
:10191000BDE8F0874FF41651016000218180C1803D
:1019200001810C21418100218181704710B502465F
:101930000020108A4FF2FF0318400B884C88234385
:101940008C882343CC8823431843108210BD002188
:10195000018041808180C180704721B1828942F439
:101960000052828104E082894DF6FF731A40828121
:101970007047F0B50346002400260025002040F6FD
:101980006A17B94200D100BF1846C1F3421401F0F2
:101990001F06012707FA06F5012C01D10C3004E0DF
:1019A000022C01D1103000E014301AB107682F4327
:1019B000076002E00768AF430760F0BD1AB1838A91
:1019C0000B43838202E0838A8B4383827047028ABF
:1019D0004FF6F0731A400282028A0A43028270476D
:1019E00082894FF2FF731A40828182890A43828181
:1019F000704721B1828942F00202828104E082892B
:101A00004FF6FD731A4082817047028A4FF6DF73EA
:101A10001A400282028A0A430282704721B1028A76
:101A200042F48042028204E0028A4BF6FF731A40BD
:101A300002827047C1F3080282807047014688889D
:101A4000C0F308007047818941F00101818170472E
:101A5000028BD2B20283028B42EA012202837047D8
:101A6000028B02F47F420283028B0A430283704797
:101A700021B1828A42F02002828204E0828A4FF6FB
:101A8000DF731A408282704721B1828A42F01002CD
:101A9000828204E0828A4FF6EF731A408282704796
:101AA00021B1828A42F00802828204E0828A4FF6E3
:101AB000F7731A408282704721B1828942F4004252
:101AC000828103E08289C2F30E028281704721B1D4
:101AD000828A42F40062828204E0828A4FF2FF73BB
:101AE0001A4082827047828A4FF6FB731A408282C4
:101AF000828A0A438282704721B1828A42F00202BE
:101B0000828204E0828A4FF6FD731A408282704717
:101B100002460020B1F5007F00D100BF13880B40C2
:101B20000BB1012000E00020704701F40072B2F513
:101B3000007F00D100BFCA430280704770B50246E3
:101B4000002400230025002040F66A16B14200D18F
:101B500000BFC1F3421501F01F03012606FA03F38B
:101B6000012D02D19689334006E0022D02D1168A5A
:101B7000334001E0968A33400C12012606FA04F441
:101B80001688344013B10CB1012000E0002070BD74
:101B900010B50022002340F66A14A14200D100BF14
:101BA0000A1201249440A3B2DC43048010BD00005B
:101BB000003801400044004000480040004C004014
:101BC0000050004001684FF6FE7211400160002194
:101BD000016041608160C1608D49884208D18C49B3
:101BE0000839496841F00F01894A083A51608AE092
:101BF00087491431884208D185490839496841F03C
:101C0000F001834A083A51607DE0814928318842D9
:101C100008D17F490839496841F470617C4A083A23
:101C2000516070E07A493C31884208D178490839DE
:101C3000496841F47041764A083A516063E074495A
:101C40005031884208D172490839496841F47021FD
:101C50006F4A083A516056E06D496431884208D1B4
:101C60006B490839496841F47001694A083A516082
:101C700049E067497831884208D16549083949689F
:101C800041F07061624A083A51603CE06149884223
:101C900006D1011F096841F00F01021F116032E0F7
:101CA0005C491431884208D15A49091F096841F03A
:101CB000F001584A121F116025E056492831884228
:101CC00008D15449091F096841F47061514A121F33
:101CD000116018E04F493C31884208D14D49091F35
:101CE000096841F470414B4A121F11600BE04949E9
:101CF0005031884207D14749091F096841F47021D2
:101D0000444A121F1160704710B50022026847F65E
:101D1000F0739A430C6A8B6823430C6923434C6924
:101D200023438C692343CC6923434C6A23438C6A45
:101D300023431A430260CB6843600B6883604B689F
:101D4000C36010BD0021016041608160C16001611C
:101D500041618161C161016241628162704721B16B
:101D6000026842F00102026004E002684FF6FE736E
:101D70001A40026070471AB103680B43036002E027
:101D800003688B43036070474160704701464868B1
:101D900080B2704701460020002201F080531BB141
:101DA0001C4B083B1A6802E0194B083B1A6802EA10
:101DB00001030BB1012000E00020704700F08051CA
:101DC00019B11449091F086002E011490839486037
:101DD000704701460020002201F080531BB10D4BDB
:101DE000083B1A6802E00A4B083B1A6802EA010342
:101DF0000BB1012000E00020704700F0805119B1C4
:101E00000449091F086002E0014908394860704729
:101E1000080002400804024010B50446FA48844213
:101E200008D101214015FFF77FFC00216015FFF765
:101E30007BFC17E0F548844208D101210015FFF72B
:101E400073FC00212015FFF76FFC0BE0F048844283
:101E500008D10121C803FFF767FC00214FF40040BF
:101E6000FFF762FC10BD30B5024600200023506829
:101E7000E84C20400D790C6844EA0524204350606A
:101E80009068E54C2040D1E902542C434D7944EA56
:101E9000450420439060D06A20F470000C7C641EDE
:101EA000E4B2234340EA0350D06230BD0021016018
:101EB000017141718160C16001210174704721B1DC
:101EC000826842F00102826003E0826822F001022F
:101ED0008260704721B1826842F48072826003E0C0
:101EE000826822F480728260704710B50023CBB202
:101EF0001AB144681C43446002E044689C43446057
:101F000010BD816841F008018160704701460020E2
:101F10008A6802F008020AB1012000E00020704740
:101F2000816841F0040181607047014600208A68A1
:101F300002F004020AB1012000E00020704721B144
:101F4000826842F4A002826003E0826822F4A00268
:101F500082607047014600208A6802F480020AB15C
:101F6000012000E00020704710B50A460021002340
:101F7000416821F46041531E41EA4331416010BD84
:101F800021B1426842F40062426003E0426822F4F8
:101F9000006242607047F0B504460D460020002103
:101FA000092D11DDE068A5F10A0606EB46070726B4
:101FB00006FA07F18843A5F10A0606EB460603FA7E
:101FC00006F10843E0600CE0206905EB45070726B1
:101FD00006FA07F1884305EB450603FA06F10843C4
:101FE0002061072A0FDA606B561E06EB86071F2654
:101FF00006FA07F18843561E06EB860605FA06F137
:102000000843606322E00D2A0FDA206BD61F06EB2F
:1020100086071F2606FA07F18843D61F06EB8606B9
:1020200005FA06F10843206310E0E06AA2F10D060C
:1020300006EB86071F2606FA07F18843A2F10D0674
:1020400006EB860605FA06F10843E062F0BD21B111
:10205000826842F48012826003E0826822F4801277
:10206000826070470146C86C80B2704766484C3049
:102070000068704721B1426842F48062426003E028
:10208000426822F480624260704721B1426842F4A3
:102090008052426003E0426822F4805242607047FE
:1020A0000A460021816821F4E041114381607047B4
:1020B00021B1826842F40042826003E0826822F427
:1020C00000428260704721B1826842F4021282604D
:1020D00003E0826822F40212826070470146002009
:1020E0008A6802F400120AB1012000E00020704763
:1020F000F0B504461546002000220026092911DD0E
:10210000E068A1F10A0707EB470C072707FA0CF272
:102110009043A1F10A0707EB470703FA07F21043C0
:10212000E0600CE0206901EB410C072707FA0CF294
:10213000904301EB410703FA07F210432061A06BC3
:10214000C0F30156EF1C06F1010CA7EB0C0707EBDF
:10215000870C1F2707FA0CF29043EF1C06F1010CC5
:10216000A7EB0C0707EB870701FA07F21043A06300
:10217000F0BD10B50A4600210023816B21F4401107
:10218000531E41EA0351816310BD08B5002300933B
:102190000090009B0B440093009B1A6008BD08B59B
:1021A000024600200090009201F12800009B184494
:1021B00000900098006880B208BD0A46002141687E
:1021C000164B19401143416070474162826270476B
:1021D0000A460021416821F01F0111434160704708
:1021E00040B109490831096841F40001064A083242
:1021F000116007E004490831096821F40001024A2E
:10220000083211607047000000240140002801409E
:10221000003C0140FFFEF0FFFDF7F1FFFFFD3FFF37
:102220000246002013680B400BB1012000E00020A3
:102230007047CA430260704770B502460020002311
:1022400000240B125568CEB205EA060415681D403D
:1022500015B10CB1012000E0002070BD00220A126F
:10226000D34303607047000010B50446FE48844223
:1022700009D101214806FFF764FA00214FF00070F0
:10228000FFF75FFA08E001218806FFF75AFA0021FC
:102290004FF08060FFF755FA10BD30B502460020C0
:1022A0000023146824F002041460146844F001044C
:1022B000146000E05B1C546804F001041CB94FF684
:1022C000FF74A342F6D1546804F001040CB9002055
:1022D0006CE08C79012C04D1146844F08004146003
:1022E00003E0146824F080041460CC79012C04D13C
:1022F000146844F04004146003E0146824F04004BF
:1023000014600C7A012C04D1146844F02004146089
:1023100003E0146824F0200414604C7A012C04D1EA
:10232000146844F01004146003E0146824F01004EE
:1023300014608C7A012C04D1146844F008041460F1
:1023400003E0146824F008041460CC7A012C04D152
:10235000146844F00404146003E0146824F00404D6
:1023600014608C78A407CD7844EA05640D7944EABA
:1023700005444D7944EA05540D886D1E2C43D46103
:10238000146824F001041460002300E05B1C54680E
:1023900004F001041CB14FF6FF74A342F6D1546857
:1023A00004F001040CB1002000E0012030BD10B5A4
:1023B0000021837A012202FA03F1AC4A126842F04A
:1023C0000102AA4B1A60A94A1C3212688A43A74B21
:1023D0001C331A60027BCAB9A44A0C3212688A43C1
:1023E000A24B0C331A604288C38842EA03439F4AD7
:1023F0004032847A42F834300288838842EA0343C8
:102400009A4A4032847A02EBC4025360027B012A6A
:1024100019D1964A0C3212680A43944B0C331A6055
:102420004288038842EA0343904A4032847A42F861
:102430003430C288838842EA03438C4A4032847A2B
:1024400002EBC4025360C27A3AB9884A121D12687C
:102450008A43864B1B1D1A6006E0844A121D1268CF
:102460000A43824B1B1D1A60028932B97F4A14321B
:1024700012688A437D4B14331A600289012A06D1FF
:102480007A4A143212680A43784B14331A60427B3A
:10249000012A06D1754A1C3212680A43734B1C3359
:1024A0001A60724A126822F00102704B1A6010BD65
:1024B00000218171C171017241728172C17281709A
:1024C000C170032101710221417101210180704716
:1024D0006649096841F00101644A116011460968C2
:1024E00043F60E729143614A11601146096841EA50
:1024F000002111601146096821F001011160704747
:1025000021B1026842F48032026003E0026822F4E2
:10251000803202607047E1B1026842F080020260DE
:102520004FF4C272125842F480734FF4C2721350C7
:102530004FF4CA72125842F480734FF4CA721350A7
:102540004FF4D272125842F480734FF4D272135087
:102550001BE0026822F0800202604FF4C27212583F
:1025600022F480734FF4C27213504FF4CA7212589F
:1025700022F480734FF4CA7213504FF4D27212587F
:1025800022F480734FF4D2721350704710B5024694
:102590000020936803F08063B3F1806F00D110E0F6
:1025A000936803F00063B3F1006F01D1012008E0EC
:1025B000936803F08053B3F1805F01D1022000E003
:1025C0000420042879D002F5C07303EB00131B68C4
:1025D00003F0010402F5C07303EB00131C600B7AD7
:1025E0007BB94B7A0C8843EA445302F5C07404EB80
:1025F00000142468234302F5C07404EB0014236024
:1026000010E00B7A4C6843EAC4034C7A234302F58A
:10261000C07404EB00142468234302F5C07404EB77
:10262000001423608B7A03F00F038B7202F5C073E2
:1026300003EB00135B6823F00F0402F5C07303EB98
:1026400000135C6002F5C07303EB00135B688C7AC7
:10265000234302F5C07404EB001463608B7B1C06FB
:102660004B7B44EA034403E0006400400066004002
:102670000B7B44EA0323CC7A234302F5C07404EBBA
:102680000014A3608B7C1C064B7C44EA03440B7C47
:1026900044EA0323CC7B234302F5C07404EB00140B
:1026A000E36002F5C07303EB00131B6843F0010401
:1026B00002F5C07303EB00131C6010BD10B5024699
:1026C000002321B1012907D002290FD109E0906828
:1026D000F94C00EA04030BE09068F84C00EA0403AC
:1026E00006E09068F64C00EA040301E0002300BF16
:1026F00000BFF44C181BA34216D007DC83B16FF067
:102700008060184470B1022818D111E0B0F5007F44
:1027100010D0ED4C204448B1B0F5003F0ED10BE095
:1027200002230DE000230BE0002309E0002307E073
:10273000012305E0012303E0012301E0002300BFA2
:1027400000BFD8B210BD21B1012907D002290FD195
:1027500009E0826842F0800282600AE0826842F406
:102760000042826005E0826842F40002826000E07C
:1027700000BF00BF704710B500F5D87303EB01131D
:102780001B6803F004031372137A53B900F5D8736E
:1027900003EB01131B6840F2FF7404EA5353136008
:1027A00009E000F5D87303EB01131B686FF0604478
:1027B00004EAD303536000F5D87303EB01131B68DD
:1027C00003F00203537200F5D87303EB01135B6847
:1027D00003F00F03937200F5D87303EB01135B68EA
:1027E0001B0AD37400F5D87303EB01139B68D372F3
:1027F00000F5D87303EB01139B681C0A147300F5F2
:10280000D87303EB01139B681C0C547300F5D87349
:1028100003EB01139B681B0E937300F5D87303EB56
:102820000113DB68D37300F5D87303EB0113DB6886
:102830001C0A147400F5D87303EB0113DB681C0C3D
:10284000547400F5D87303EB0113DB681B0E93740B
:1028500021B9C36843F02003C36003E0036943F078
:102860002003036110BD21B9C26842F02002C2609A
:1028700003E0026942F02002026170470246002034
:1028800019B9D36803F0030006E0012903D11369E5
:1028900003F0030000E00020704710B502460B462D
:1028A00000204FF6FF71BBB9146824F0020444F015
:1028B0000104146000E0491E546804F00304012C74
:1028C00001D00029F7D1546804F00304012C01D091
:1028D000002032E0012030E0012B13D1146824F0F5
:1028E0000304146000E0491E546804F003040CB1B2
:1028F0000029F8D1546804F003040CB100201CE056
:1029000001201AE0022B17D1146824F0010444F0CE
:102910000204146000E0491E546804F00304022C11
:1029200001D00029F7D1546804F00304022C01D02F
:10293000002002E0012000E0002010BD0146002040
:102940000A6822F0010242F002020A604A6802F0BC
:102950000302022A00D10120704701464FF6FF72A0
:1029600000200B6823F002030B6000E0521E4B684E
:1029700003F00203022B01D1002AF7D14B6803F0C8
:102980000203022B00D001207047014600208A6913
:1029900002F070007047014600208A69100E7047EF
:1029A000014600208A69C2F3074070471AB14369A3
:1029B0000B43436102E043698B434361704710B5A9
:1029C0000246002001F4700343B19369C1F313047C
:1029D00023400BB101202DE000202BE001F080739B
:1029E00043B15368C1F3130423400BB1012021E02C
:1029F00000201FE001F0006343B19368C1F31304AA
:102A000023400BB1012015E0002013E001F000731A
:102A100043B1D368C1F3130423400BB1012009E093
:102A2000002007E01369C1F3130423400BB1012018
:102A300000E0002010BD0022244B994202D1002367
:102A4000836111E0C1F3130201F000730BB1C260A6
:102A50000AE001F080630BB1026105E001F0006360
:102A60000BB1826000E0426070470246002002EA3B
:102A700001030BB1012000E00020704770B504464F
:102A80000D46002660692840002872D0B5F5807F89
:102A900069D01DDC082D42D006DC012D2DD0022D81
:102AA00031D0042D7FD134E0102D3ED0202D42D0E6
:102AB000402D78D145E00000030000040003000829
:102AC00000000310000100080001FFF77000F03063
:102AD000B5F5004F61D009DCB5F5007F4AD0B5F5FA
:102AE000806F4DD0B5F5006F5DD150E0B5F5803FFA
:102AF0002DD0B5F5003F56D12FE0A0685549FFF71E
:102B0000B4FF064651E0E0680321FFF7AEFF06463A
:102B10004BE0E0680821FFF7A8FF064645E0E068C3
:102B20001021FFF7A2FF06463FE020690321FFF7CF
:102B30009CFF064639E020690821FFF796FF06460C
:102B400033E020691021FFF790FF06462DE0606812
:102B50000821FFF78AFF064627E060681021FFF78B
:102B600084FF064621E0A0690121FFF77EFF0646AB
:102B70001BE01BE0A0690221FFF777FF064614E087
:102B8000A0690421FFF771FF06460EE00BE0A06983
:102B90007021FFF76AFF064607E060680421FFF72F
:102BA00064FF064601E0002600BF00E00026304634
:102BB00070BDB1F5007F3AD00FDC202928D006DCAB
:102BC00001291CD004291DD0082940D11DE040292D
:102BD00021D0B1F5807F3AD126E0B1F5004F31D058
:102BE00006DCB1F5806F25D0B1F5006F2FD124E060
:102BF000B1F5803F12D0B1F5003F28D111E0154A60
:102C0000826025E00822C26022E01022C2601FE03C
:102C1000082202611CE01022026119E008224260D1
:102C200016E01022426013E00422426010E0042209
:102C300042600DE0042242600AE000228261042228
:102C4000426005E0002282610422426000E000BF91
:102C500000BF70470101010010B56FF00400FEF7DE
:102C60000EFA2E4800682E49B0FBF1F02D4908708D
:102C70000846007800EB4001C1EBC0104FF6FF7131
:102C800001EAC0002849088010BD0146254A127893
:102C90004A434FF0E0235A6100229A611A461269B2
:102CA00042F001021A6100BF4FF0E022106900F00B
:102CB00001021AB100F48032002AF5D04FF0E02270
:102CC000126922F001024FF0E0231A6100229A619A
:102CD00070470146144A12884A434FF0E0235A6174
:102CE00000229A611A46126942F001021A6100BF7D
:102CF0004FF0E022106900F001021AB100F48032B6
:102D0000002AF5D04FF0E022126922F001024FF0C4
:102D1000E0231A6100229A61704700000000002041
:102D200000127A00AE000020B000002008B54FF479
:102D3000A060FEF755F925208DF8000003208DF8DE
:102D400001008DF8020001208DF803006846FEF7AF
:102D50004CF90E208DF8000002208DF801000120B2
:102D60008DF802008DF803006846FEF73EF90B204F
:102D70008DF8000001208DF8010000208DF8020080
:102D800001208DF803006846FEF72FF908BD00000A
:102D9000014600BF704700BF4A4A128802F0400255
:102DA000002AF9D0C2B2474B1B1D1A80704710B5DC
:102DB00086B00446012144F20400FEF79BFC4FF468
:102DC0000070ADF8140003208DF8160018208DF85F
:102DD000170005A93C48FEF7D1F94FF48060ADF823
:102DE000140004208DF8170005A93748FEF7C6F92E
:102DF00001940020ADF80800ADF80A00ADF80C0011
:102E0000ADF810000C20ADF80E0001A92D48FEF71A
:102E100018FD002240F226612A48FEF7AAFD002292
:102E200040F225512748FEF7A4FD012240F224413B
:102E30002448FEF79EFD012240212248FEF7BEFDF8
:102E4000012280211F48FEF7B9FD01211D48FEF730
:102E500084FD06B010BD10B540F224411948FEF7BC
:102E60006DFE68B300211948FEF779FF1548008808
:102E7000174908701348001D008808701348FEF7B2
:102E800085FFC0F180001249087080200F49583931
:102E9000C8650F48007800280EDD0E480078042829
:102EA00002D00C48007838B9FDF75FFD094800787A
:102EB000042801D1FDF7DBFD01210448FEF74FFF97
:102EC00010BD0000003801400008014058000240D9
:102ED000960000203401002070477047704770470B
:102EE0007047754600F028F8AE460500694653461F
:102EF00020F00700854618B020B5FEF75FF8BDE862
:102F000020404FF000064FF000074FF000084FF050
:102F1000000B21F00701AC46ACE8C009ACE8C009E1
:102F2000ACE8C009ACE8C0098D4670470446AFF371
:102F300000802046FDF721F9004870473403002047
:102F400010F0004148BF4042B0FA80F310FA03F29B
:102F5000C3F19D030BD051EAC35101EB122053067C
:102F600038BF704700F1010008BF20F00100704732
:102F7000902F000800000020B40000002801000885
:102F800044300008B4000020E408000044010008B8
:102F900000A24A0400000000000000000102030437
:102FA00006070809010001000100010001000100FD
:102FB0000100010001000100010001000100010009
:102FC00001000100010001000100010000000000FB
:102FD00000000000000000000000000000000000F1
:102FE00000000000000000000000000000000000E1
:102FF00000000000000000000000000000000000D1
:1030000000000000000000000000000000000000C0
:1030100000000000000000000000000000000000B0
:103020000000000000000000FFFF0000000001029F
:10303000030401020304060708090204060800004D
:04304000000000008C
:04000005080000ED02
:00000001FF
